S0130000427574746F6E466C6173682E73726563A7
S113000071C000008EC000008CC000008AC00000D7
S113001088C0000086C0000084C0000082C00000C8
S113002080C000007EC000007CC000007AC00000D8
S113003078C0000076C0000074C0000072C00000E8
S113004070C000006EC000006CC000006AC00000F8
S113005068C0000066C0000064C0000062C0000008
S113006060C000005EC000005CC000005AC0000018
S113007058C0000056C0000054C0000052C0000028
S113008050C000004EC000004CC000004AC0000038
S113009048C0000046C0000044C0000042C0000048
S11300A040C000003EC000003CC000003AC0000058
S11300B038C0000036C0000034C0000032C0000068
S11300C030C000002EC000002CC000002AC0000078
S11300D028C0000026C0000024C0000022C0000088
S11300E020C0000011241FBECFEFD1E2DEBFCDBF80
S11300F000E00CBF12E0A0E0B2E0E6E9F3E000E0CB
S11301000BBF02C007900D92AC30B107D9F722E0C3
S1130110ACE0B2E001C01D92A031B207E1F70BD10F
S113012038C16ECF8A958CF044F4000000000000C2
S1130130000000000000000000008A95000000009C
S11301400000000000008CF708958196880F880F46
S1130150880F889F8A954CF781B38F7019F081B30B
S1130160807F81BB7E9B02C07F99FCCF7E9907C0B4
S11301707E9BFECF10920D0210920C0208957F9B7D
S1130180FECF81E090E090930D0280930C020895DD
S11301900F931F93CF93DF939C01ADECBCECEAD09B
S11301A096958795969587950097B9F48FEF9FEF6D
S11301B01CC07E9B0CC07F9B0AC085E090E0B2DF30
S11301C02196C017D107A9F78FEF9FEF0EC08FB10B
S11301D086FB882780F990E008C07E9BF8CF7F9B40
S11301E0F6CF8C01C0E0D0E0E8CFDF91CF911F9132
S11301F00F910895889A88EE93E0CADF90930D02D8
S113020080930C0281B311BA80910C0290910D027B
S113021099238CF5899A88EE93E0BADF90930D02C6
S113022080930C0281B311BA80910C0290910D025B
S113023099230CF58A9A88EE93E0AADF90930D0235
S113024080930C0281B311BA80910C0290910D023B
S113025099238CF48B9A88EE93E09ADF90930D02A5
S113026080930C0281B311BA80910C0290910D021B
S113027099230CF4BFCF089581B38F6081BB88ECC0
S113028090E086DF90930D0280930C0281B311BA43
S113029080910C0290910D0299237CF488EE93E0F6
S11302A077DF90930D0280930C0281B311BA809191
S11302B00C0290910D029923FCF2089580910E0294
S11302C090910F028130910519F0029719F004C042
S11302D091CF0895D1CF08953FCF0895E0910C02B6
S11302E0F0910D02309781F4E0910E02F0910F022B
S11302F0EE0FFF1FE050FE4F8081918190930F021B
S113030080930E02DBCF0895CF01880F991FE80F69
S1130310F91F80910E0290910F02E80FF91FEE0F62
S1130320FF1FE050FE4F8081918190930F028093D4
S11303300E02C4CF08958FE080BB80EC81BB109285
S11303400F0210920E027E9B02C07F99FCCF7E9911
S113035007C07E9BFECF10920D0210920C0208C0C3
S11303607F9BFECF81E090E090930D0280930C027E
S1130370B5DFFECFA29FB001B39FC001A39F700D54
S1130380811D1124911DB29F700D811D1124911D99
S10903900895F894FFCF6C
S10F039601000000010002000200000051
S9030000FC
